:020000040800F2
:1000000070060020CD010008BB060008E5050008C9
:10001000B906000887020008C706000800000000B3
:10002000000000000000000000000000BF06000803
:100030008902000800000000BD060008C106000893
:10004000E7010008E7010008E7010008E7010008F0
:10005000E7010008E7010008E7010008E7010008E0
:10006000E7010008E7010008E7010008E7010008D0
:10007000E7010008E7010008E7010008E7010008C0
:10008000E7010008E7010008E7010008E7010008B0
:10009000E7010008E7010008E7010008E7010008A0
:1000A000E7010008E7010008E7010008E701000890
:1000B000E7010008E7010008E7010008E701000880
:1000C000E7010008E7010008E7010008E701000870
:1000D000E7010008E7010008E7010008E701000860
:1000E000E7010008E7010008E7010008E701000850
:1000F000E7010008E7010008E7010008E701000840
:10010000E7010008E7010008E7010008E70100082F
:10011000E7010008E7010008E7010008E70100081F
:10012000E7010008E7010008E7010008E70100080F
:1001300000F002F800F03AF80AA090E8000C8244BF
:100140008344AAF10107DA4501D100F02FF8AFF29C
:10015000090EBAE80F0013F0010F18BFFB1A43F0A5
:1001600001031847D0050000F0050000103A24BF35
:1001700078C878C1FAD8520724BF30C830C144BF0C
:1001800004680C607047000000230024002500264E
:10019000103A28BF78C1FBD8520728BF30C148BFEA
:1001A0000B6070471FB51FBD10B510BD00F031F8D2
:1001B0001146FFF7F7FF00F097FA00F04FF803B48D
:1001C000FFF7F2FF03BC00F057F800000948804732
:1001D00009480047FEE7FEE7FEE7FEE7FEE7FEE729
:1001E000FEE7FEE7FEE7FEE704480549054A064B41
:1001F00070470000C50600083101000870000020AB
:1002000070060020700200207002002070477047C6
:100210007047754600F02CF8AE4605006946534617
:1002200020F00700854618B020B5FFF7DDFFBDE8D8
:1002300020404FF000064FF000074FF000084FF04D
:10024000000B21F00701AC46ACE8C009ACE8C009DE
:10025000ACE8C009ACE8C0098D46704710B504464B
:10026000AFF300802046BDE81040FFF7A8BF0000B4
:10027000004870471000002001491820ABBEFEE77F
:10028000260002007047FEE7704700002DE9F84F96
:10029000DFF8C8910024A9F1040B23460F2709F1C8
:1002A000040AABF1040ED1E00125A54006EA0502DF
:1002B000AA4276D1DFF8A8C14E68A6EB0C086645C5
:1002C0002BD00DDC032E34D005DC36B3012E19D033
:1002D000022E2FD11BE0112E16D0122E2AD119E09A
:1002E000B8F5881F19D006DCB8F5803F15D0B8F5F1
:1002F000801F1FD111E0B8F5001F0ED0B8F5041F04
:1003000018D10AE0CB6815E0CB681B1D12E0CB6862
:1003100008330FE0CB680C330CE08B682BB1012B5A
:100320004FF0080303D0456104E0042302E00561B7
:1003300000E00023FF2A01D8064601E000F1040690
:100340004FEA840501D9A5F12005D6F8008007FA07
:1003500005FC28EA0C0803FA05F548EA0508C6F882
:1003600000804D68ED0070D53E4DAE6946F0010647
:10037000AE61AD6924F0030605F0010500953A4D24
:1003800006EB050CDCF80850A607360F07FA06F84E
:1003900025EA0805DFF8D480404503D14FF0000876
:1003A00025E052E0DFF8C880404502D14FF0010857
:1003B0001DE0DFF8C080404502D14FF0020816E092
:1003C000DFF8B480404502D14FF003080FE0DFF8BA
:1003D000AC80404502D14FF0040808E0DFF8A0806F
:1003E000404502D14FF0050801E04FF0060808FA39
:1003F00006F848EA0508CCF808804D68D9F800608E
:10040000ED024D4601D5164300E096432E604D683F
:10041000DAF80060AD02554601D5164300E0964378
:100420002E604D68DBF80060AD035D4601D51643D4
:1004300000E096432E604D68DEF80060ED037546DF
:1004400001D5164300E096432E60641C0A681646E8
:10045000E2407FF429AFBDE8F88F000008040140B6
:10046000000011100010024000000140000801408F
:10047000000C014000100140001401400018014030
:10048000001C01408068084000D001207047C2680D
:1004900021EA02030A4043EA0241016170470AB1BE
:1004A000016170470904FBE7024881680278114442
:1004B0008160704700000020074810B5016841F0D6
:1004C00010010160032000F067F80F2000F006F82B
:1004D00000F024F8002010BD0020024070B50D4D42
:1004E00004464FF47A712878B1FBF0F00A490968A4
:1004F000B1FBF0F000F062F848B9102C07D20022EE
:100500002146501E00F028F800206C6070BD0120CC
:1005100070BD0000000000200C0000200C4808B551
:10052000816941F001018161816901F0010100915E
:10053000C16941F08051C161C06900F080500090F4
:100540000448416821F0E06141F08061416008BDEC
:100550000010024000000140F0B40E4B1B680C4636
:10056000C3F30223C3F10705042D00D90425191D87
:10057000072901D2002300E0DB1E012606FA05F15F
:10058000491E214099409E40761E16403143F0BCE2
:1005900000F09AB80CED00E0064900F00702086888
:1005A0004FF6FF03184040EA0220034A1043086058
:1005B000704700000CED00E00000FA0510B5401E89
:1005C000B0F1807F01D3012010BD4FF0E0246061C5
:1005D0000F21601700F078F80020A061072020614B
:1005E000002010BDFEE7000010B586B000241248C0
:1005F000019402940394816941F010018161816941
:1006000001F010010491816941F004018161806968
:10061000694600F0040004904FF400500090074831
:10062000FFF734FE0120CDE9000469460448029436
:10063000FFF72CFE06B010BD001002400010014074
:100640000008014070B50C460546FFF71BFF012866
:1006500001D0002070BD21462846FFF713FF012876
:10066000F9D0012070BD000030B585B000241048DD
:100670000094019402940394816941F0080181611E
:1006800080690C4D00F008000490012223212846C7
:10069000FFF705FF232000900120CDE9010402208F
:1006A000039069462846FFF7F1FD05B030BD000014
:1006B00000100240000C0140FEE7FEE77047704763
:1006C000FFF7F2BE7047FEE70907090E002804DBBA
:1006D00000F1E02080F80014704700F00F0000F1F6
:1006E000E02080F8141D7047FFF7E6FEFFF7BCFF1F
:1006F000FFF77AFF0C4D0D4E0D4F4FF4005421467D
:100700002846FFF79FFF012803D102213846FFF753
:10071000BEFE01213046FFF795FF0128EFD10121F0
:100720003846FFF7B4FEEAE7001001400008014038
:10073000000C0140540700080000002010000000D9
:100740006C0100086407000810000020600600002B
:1007500088010008010000001000000000000000F7
:0407600000127A0009
:0400000508000131BD
:00000001FF
